{
  "_format": "hh-sol-artifact-1",
  "contractName": "POGPOTExtensionContract",
  "sourceName": "contracts/POGPOTExtensionContract.sol",
  "abi": [
    {
      "inputs": [
        {
          "internalType": "address",
          "name": "_airnodeRrpAddress",
          "type": "address"
        }
      ],
      "stateMutability": "nonpayable",
      "type": "constructor"
    },
    {
      "inputs": [
        {
          "internalType": "address",
          "name": "owner",
          "type": "address"
        }
      ],
      "name": "OwnableInvalidOwner",
      "type": "error"
    },
    {
      "inputs": [
        {
          "internalType": "address",
          "name": "account",
          "type": "address"
        }
      ],
      "name": "OwnableUnauthorizedAccount",
      "type": "error"
    },
    {
      "anonymous": false,
      "inputs": [
        {
          "indexed": true,
          "internalType": "address",
          "name": "previousOwner",
          "type": "address"
        },
        {
          "indexed": true,
          "internalType": "address",
          "name": "newOwner",
          "type": "address"
        }
      ],
      "name": "OwnershipTransferred",
      "type": "event"
    },
    {
      "anonymous": false,
      "inputs": [
        {
          "indexed": true,
          "internalType": "uint256",
          "name": "LPDROP",
          "type": "uint256"
        }
      ],
      "name": "PogPotDrop",
      "type": "event"
    },
    {
      "anonymous": false,
      "inputs": [
        {
          "indexed": true,
          "internalType": "bytes32",
          "name": "requestId",
          "type": "bytes32"
        }
      ],
      "name": "RequestedUint256",
      "type": "event"
    },
    {
      "anonymous": false,
      "inputs": [
        {
          "indexed": true,
          "internalType": "uint256",
          "name": "time",
          "type": "uint256"
        }
      ],
      "name": "RoundEnded",
      "type": "event"
    },
    {
      "anonymous": false,
      "inputs": [
        {
          "indexed": true,
          "internalType": "address",
          "name": "winner",
          "type": "address"
        },
        {
          "indexed": true,
          "internalType": "uint256",
          "name": "winnerTokenid",
          "type": "uint256"
        }
      ],
      "name": "winnerClaim",
      "type": "event"
    },
    {
      "anonymous": false,
      "inputs": [
        {
          "indexed": true,
          "internalType": "address",
          "name": "winner",
          "type": "address"
        },
        {
          "indexed": true,
          "internalType": "uint256",
          "name": "winningID",
          "type": "uint256"
        },
        {
          "indexed": true,
          "internalType": "uint256",
          "name": "BurnAmount",
          "type": "uint256"
        }
      ],
      "name": "winnerDeclared",
      "type": "event"
    },
    {
      "inputs": [
        {
          "internalType": "uint256",
          "name": "roundId",
          "type": "uint256"
        }
      ],
      "name": "ClaimWinningCertificate",
      "outputs": [],
      "stateMutability": "nonpayable",
      "type": "function"
    },
    {
      "inputs": [],
      "name": "ClaimWinningCertificates",
      "outputs": [],
      "stateMutability": "nonpayable",
      "type": "function"
    },
    {
      "inputs": [],
      "name": "POG",
      "outputs": [
        {
          "internalType": "address",
          "name": "",
          "type": "address"
        }
      ],
      "stateMutability": "view",
      "type": "function"
    },
    {
      "inputs": [],
      "name": "RoundsActive",
      "outputs": [
        {
          "internalType": "bool",
          "name": "",
          "type": "bool"
        }
      ],
      "stateMutability": "view",
      "type": "function"
    },
    {
      "inputs": [
        {
          "internalType": "bool",
          "name": "state",
          "type": "bool"
        }
      ],
      "name": "RoundsState",
      "outputs": [],
      "stateMutability": "nonpayable",
      "type": "function"
    },
    {
      "inputs": [],
      "name": "airnode",
      "outputs": [
        {
          "internalType": "address",
          "name": "",
          "type": "address"
        }
      ],
      "stateMutability": "view",
      "type": "function"
    },
    {
      "inputs": [],
      "name": "airnodeRrp",
      "outputs": [
        {
          "internalType": "contract IAirnodeRrpV0",
          "name": "",
          "type": "address"
        }
      ],
      "stateMutability": "view",
      "type": "function"
    },
    {
      "inputs": [],
      "name": "burnAddress",
      "outputs": [
        {
          "internalType": "address",
          "name": "",
          "type": "address"
        }
      ],
      "stateMutability": "view",
      "type": "function"
    },
    {
      "inputs": [
        {
          "internalType": "uint256",
          "name": "cycleTime",
          "type": "uint256"
        }
      ],
      "name": "cycle_over_ride",
      "outputs": [],
      "stateMutability": "nonpayable",
      "type": "function"
    },
    {
      "inputs": [
        {
          "internalType": "uint256",
          "name": "tokenId",
          "type": "uint256"
        }
      ],
      "name": "emergencyClaim",
      "outputs": [],
      "stateMutability": "nonpayable",
      "type": "function"
    },
    {
      "inputs": [],
      "name": "endpointIdUint256",
      "outputs": [
        {
          "internalType": "bytes32",
          "name": "",
          "type": "bytes32"
        }
      ],
      "stateMutability": "view",
      "type": "function"
    },
    {
      "inputs": [
        {
          "internalType": "uint256",
          "name": "amount",
          "type": "uint256"
        },
        {
          "internalType": "uint256",
          "name": "numberOfTickets",
          "type": "uint256"
        }
      ],
      "name": "enterDrawRound",
      "outputs": [],
      "stateMutability": "nonpayable",
      "type": "function"
    },
    {
      "inputs": [
        {
          "internalType": "bytes32",
          "name": "",
          "type": "bytes32"
        }
      ],
      "name": "expectingRequestWithIdToBeFulfilled",
      "outputs": [
        {
          "internalType": "bool",
          "name": "",
          "type": "bool"
        }
      ],
      "stateMutability": "view",
      "type": "function"
    },
    {
      "inputs": [],
      "name": "firstCycleInitialized",
      "outputs": [
        {
          "internalType": "bool",
          "name": "",
          "type": "bool"
        }
      ],
      "stateMutability": "view",
      "type": "function"
    },
    {
      "inputs": [],
      "name": "forceSend",
      "outputs": [],
      "stateMutability": "nonpayable",
      "type": "function"
    },
    {
      "inputs": [
        {
          "internalType": "bytes32",
          "name": "requestId",
          "type": "bytes32"
        },
        {
          "internalType": "bytes",
          "name": "data",
          "type": "bytes"
        }
      ],
      "name": "fulfillUint256",
      "outputs": [],
      "stateMutability": "nonpayable",
      "type": "function"
    },
    {
      "inputs": [],
      "name": "getCurrentTicketCount",
      "outputs": [
        {
          "internalType": "uint256",
          "name": "",
          "type": "uint256"
        }
      ],
      "stateMutability": "view",
      "type": "function"
    },
    {
      "inputs": [
        {
          "internalType": "uint256",
          "name": "index",
          "type": "uint256"
        }
      ],
      "name": "getParticpantByIndex",
      "outputs": [
        {
          "internalType": "address",
          "name": "",
          "type": "address"
        }
      ],
      "stateMutability": "view",
      "type": "function"
    },
    {
      "inputs": [],
      "name": "getParticpantCount",
      "outputs": [
        {
          "internalType": "uint256",
          "name": "",
          "type": "uint256"
        }
      ],
      "stateMutability": "view",
      "type": "function"
    },
    {
      "inputs": [],
      "name": "getTimeRemaining",
      "outputs": [
        {
          "internalType": "uint256",
          "name": "",
          "type": "uint256"
        }
      ],
      "stateMutability": "view",
      "type": "function"
    },
    {
      "inputs": [
        {
          "internalType": "address",
          "name": "_address",
          "type": "address"
        }
      ],
      "name": "isAParticipant",
      "outputs": [
        {
          "internalType": "bool",
          "name": "",
          "type": "bool"
        }
      ],
      "stateMutability": "view",
      "type": "function"
    },
    {
      "inputs": [],
      "name": "isRoundOver",
      "outputs": [
        {
          "internalType": "bool",
          "name": "",
          "type": "bool"
        }
      ],
      "stateMutability": "view",
      "type": "function"
    },
    {
      "inputs": [
        {
          "internalType": "uint256",
          "name": "price",
          "type": "uint256"
        }
      ],
      "name": "overRideShareAmount",
      "outputs": [],
      "stateMutability": "nonpayable",
      "type": "function"
    },
    {
      "inputs": [
        {
          "internalType": "uint256",
          "name": "_timeSpan",
          "type": "uint256"
        }
      ],
      "name": "overRideTimeSpan",
      "outputs": [],
      "stateMutability": "nonpayable",
      "type": "function"
    },
    {
      "inputs": [],
      "name": "owner",
      "outputs": [
        {
          "internalType": "address",
          "name": "",
          "type": "address"
        }
      ],
      "stateMutability": "view",
      "type": "function"
    },
    {
      "inputs": [],
      "name": "renounceOwnership",
      "outputs": [],
      "stateMutability": "nonpayable",
      "type": "function"
    },
    {
      "inputs": [
        {
          "internalType": "address",
          "name": "tokenAddress",
          "type": "address"
        }
      ],
      "name": "rescueETH20Tokens",
      "outputs": [],
      "stateMutability": "nonpayable",
      "type": "function"
    },
    {
      "inputs": [
        {
          "internalType": "address",
          "name": "user",
          "type": "address"
        }
      ],
      "name": "returnRoundsWon",
      "outputs": [
        {
          "internalType": "uint256[]",
          "name": "",
          "type": "uint256[]"
        }
      ],
      "stateMutability": "view",
      "type": "function"
    },
    {
      "inputs": [
        {
          "internalType": "address",
          "name": "newaddress",
          "type": "address"
        }
      ],
      "name": "seburnAddress",
      "outputs": [],
      "stateMutability": "nonpayable",
      "type": "function"
    },
    {
      "inputs": [
        {
          "internalType": "address",
          "name": "_airnode",
          "type": "address"
        },
        {
          "internalType": "bytes32",
          "name": "_endpointIdUint256",
          "type": "bytes32"
        },
        {
          "internalType": "address",
          "name": "_sponsorWallet",
          "type": "address"
        }
      ],
      "name": "setRequestParameters",
      "outputs": [],
      "stateMutability": "nonpayable",
      "type": "function"
    },
    {
      "inputs": [],
      "name": "setRoundDetails",
      "outputs": [],
      "stateMutability": "nonpayable",
      "type": "function"
    },
    {
      "inputs": [],
      "name": "sponsorWallet",
      "outputs": [
        {
          "internalType": "address",
          "name": "",
          "type": "address"
        }
      ],
      "stateMutability": "view",
      "type": "function"
    },
    {
      "inputs": [],
      "name": "timeSpan",
      "outputs": [
        {
          "internalType": "uint256",
          "name": "",
          "type": "uint256"
        }
      ],
      "stateMutability": "view",
      "type": "function"
    },
    {
      "inputs": [
        {
          "internalType": "address",
          "name": "newOwner",
          "type": "address"
        }
      ],
      "name": "transferOwnership",
      "outputs": [],
      "stateMutability": "nonpayable",
      "type": "function"
    },
    {
      "stateMutability": "payable",
      "type": "receive"
    }
  ],
  "bytecode": "0x60a0604052600480546001600160a01b031990811673f1c20999905b969b8dbc8350f4cb5e8450a6523017909155600580548216730679e1393f84a06cce947f49948ac688b2ebfe0a17905560068054821673d617ba93b45d3289d1009b89cfa9b23fd25e2881179055600780548216737fb3b2e60f75289f59b2a95bb204fc648c97b5e6179055600c805460ff199081169091555f600e55683635c9adc5dea00000600f556107086010556011805490911690556015805490911661dead1790553480156100cc575f80fd5b50604051611ef8380380611ef88339810160408190526100eb916101dd565b6001600160a01b0381166080819052604051632b77c09f60e21b8152306004820152600160248201523391839163addf027c906044015f604051808303815f87803b158015610138575f80fd5b505af115801561014a573d5f803e3d5ffd5b5050506001600160a01b038316915061017e905057604051631e4fbdf760e01b81525f600482015260240160405180910390fd5b6101878161018e565b505061020a565b5f80546001600160a01b038381166001600160a01b0319831681178455604051919092169283917f8be0079c531659141344cd1fd0a4f28419497f9722a3daafe3b4186f6b6457e09190a35050565b5f602082840312156101ed575f80fd5b81516001600160a01b0381168114610203575f80fd5b9392505050565b608051611cc86102305f395f818161040f01528181610a7d01526117a20152611cc85ff3fe6080604052600436106101f4575f3560e01c80637bdf252511610108578063bf90fb4e1161009d578063e383743e1161006d578063e383743e146105a0578063ec7f4437146105b4578063f0eb3af7146105d3578063f2fde38b146105e8578063f753321514610607575f80fd5b8063bf90fb4e1461052f578063c0e3910b1461054e578063dac6270d1461056d578063dcae4c3414610581575f80fd5b806394801f89116100d857806394801f89146104b95780639b2045fb146104d2578063a36ff4d8146104f1578063a8ad6a7414610510575f80fd5b80637bdf252514610431578063851244f714610450578063864e1dae1461047e5780638da5cb5b1461049d575f80fd5b80633718d90a1161018957806346ac851d1161015957806346ac851d146103755780635889c8b11461039457806370d5ae05146103cb578063715018a6146103ea57806371bab666146103fe575f80fd5b80633718d90a146102f75780633a8db0a5146103165780633c9f5927146103355780633e8d223714610361575f80fd5b80631a6221ba116101c45780631a6221ba1461027b57806328ce30831461028f578063305876a7146102b457806333bb6cd3146102d8575f80fd5b806301504adf146101ff57806307b9fc57146102205780630a78097d1461024857806312b77e8a14610267575f80fd5b366101fb57005b5f80fd5b34801561020a575f80fd5b5061021e6102193660046118c5565b610620565b005b34801561022b575f80fd5b5061023560095481565b6040519081526020015b60405180910390f35b348015610253575f80fd5b5061021e6102623660046118f0565b61068c565b348015610272575f80fd5b5061021e61079f565b348015610286575f80fd5b50610235610813565b34801561029a575f80fd5b50600e545f90815260126020526040902060070154610235565b3480156102bf575f80fd5b506102c8610834565b604051901515815260200161023f565b3480156102e3575f80fd5b5061021e6102f23660046118c5565b61084d565b348015610302575f80fd5b5061021e61031136600461190b565b610a72565b348015610321575f80fd5b5061021e610330366004611980565b610cec565b348015610340575f80fd5b5061035461034f3660046118f0565b61100f565b60405161023f91906119a0565b34801561036c575f80fd5b5061021e611078565b348015610380575f80fd5b5061021e61038f3660046118f0565b611298565b34801561039f575f80fd5b506103b36103ae3660046118c5565b6112c2565b6040516001600160a01b03909116815260200161023f565b3480156103d6575f80fd5b506015546103b3906001600160a01b031681565b3480156103f5575f80fd5b5061021e611345565b348015610409575f80fd5b506103b37f000000000000000000000000000000000000000000000000000000000000000081565b34801561043c575f80fd5b5061021e61044b3660046119e3565b611358565b34801561045b575f80fd5b506102c861046a3660046118c5565b60146020525f908152604090205460ff1681565b348015610489575f80fd5b5061021e6104983660046118c5565b611394565b3480156104a8575f80fd5b505f546001600160a01b03166103b3565b3480156104c4575f80fd5b50600c546102c89060ff1681565b3480156104dd575f80fd5b5061021e6104ec3660046118c5565b6113d3565b3480156104fc575f80fd5b506008546103b3906001600160a01b031681565b34801561051b575f80fd5b5061021e61052a3660046118c5565b6113f3565b34801561053a575f80fd5b50600a546103b3906001600160a01b031681565b348015610559575f80fd5b506102c86105683660046118f0565b611400565b348015610578575f80fd5b5061023561141d565b34801561058c575f80fd5b506007546103b3906001600160a01b031681565b3480156105ab575f80fd5b5061021e611454565b3480156105bf575f80fd5b5061021e6105ce366004611a2f565b611464565b3480156105de575f80fd5b5061023560105481565b3480156105f3575f80fd5b5061021e6106023660046118f0565b61147f565b348015610612575f80fd5b506011546102c89060ff1681565b6106286114b9565b600554604051632142170760e11b81526001600160a01b03909116906342842e0e9061065c90309033908690600401611a4a565b5f604051808303815f87803b158015610673575f80fd5b505af1158015610685573d5f803e3d5ffd5b5050505050565b6106946114b9565b5f546001600160a01b031633146106a9575f80fd5b806001600160a01b031663a9059cbb6106c95f546001600160a01b031690565b6040516370a0823160e01b81523060048201526001600160a01b038516906370a0823190602401602060405180830381865afa15801561070b573d5f803e3d5ffd5b505050506040513d601f19601f8201168201806040525081019061072f9190611a6e565b6040516001600160e01b031960e085901b1681526001600160a01b03909216600483015260248201526044016020604051808303815f875af1158015610777573d5f803e3d5ffd5b505050506040513d601f19601f8201168201806040525081019061079b9190611a85565b5050565b6107a76114b9565b475f6107ba5f546001600160a01b031690565b6001600160a01b0316826040515f6040518083038185875af1925050503d805f8114610801576040519150601f19603f3d011682016040523d82523d5f602084013e610806565b606091505b505090508061079b575f80fd5b600e545f90815260126020526040812061082f906003016114e5565b905090565b5f601054600b546108459190611ab4565b421015905090565b5f8181526012602052604090206005015461010090046001600160a01b031633146108fb5760405162461bcd60e51b815260206004820152604d60248201527f596f752063616e6e6f7420636c61696d2074686973206365727469666963617460448201527f65206265636175736520796f7520617265206e6f74207468652077696e6e657260648201526c081bd9881d1a19481c9bdd5b99609a1b608482015260a4015b60405180910390fd5b6005545f82815260126020526040908190206006015490516331a9108f60e11b8152600481019190915230916001600160a01b031690636352211e90602401602060405180830381865afa158015610955573d5f803e3d5ffd5b505050506040513d601f19601f820116820180604052508101906109799190611ac7565b6001600160a01b03161461099f5760405162461bcd60e51b81526004016108f290611ae2565b600580545f8381526012602052604090819020928301546006909301549051632142170760e11b81526001600160a01b03928316936342842e0e936109f293309361010090930490911691600401611a4a565b5f604051808303815f87803b158015610a09575f80fd5b505af1158015610a1b573d5f803e3d5ffd5b5050505f82815260126020526040808220600681015460059091015491519093506101009091046001600160a01b0316917fcb90408d26e46b7900b5c4691dcdcedb05997976f34c97e59b13c86b03ef05b391a350565b336001600160a01b037f00000000000000000000000000000000000000000000000000000000000000001614610ae35760405162461bcd60e51b8152602060048201526016602482015275043616c6c6572206e6f74204169726e6f6465205252560541b60448201526064016108f2565b5f8381526014602052604090205460ff16610b375760405162461bcd60e51b81526020600482015260146024820152732932b8bab2b9ba1024a2103737ba1035b737bbb760611b60448201526064016108f2565b5f838152601460205260408120805460ff19169055610b58828401846118c5565b90505f6001610b65610813565b1115610b8457610b73610813565b610b7d9083611b61565b9050610b87565b505f5b610b90816112c2565b600e80545f90815260126020908152604080832060059081018054610100600160a81b0319166101006001600160a01b03988916810291909117909155945480855282852060028101549281015460069091015496900487168086526013855283862080546001810182559087529490952090930192909255601554905163a9059cbb60e01b8152941660048501526024840181905292909190737fb3b2e60f75289f59b2a95bb204fc648c97b5e69063a9059cbb906044016020604051808303815f875af1158015610c65573d5f803e3d5ffd5b505050506040513d601f19601f82011682018060405250810190610c899190611a85565b506001600e5f828254610c9c9190611ab4565b90915550610caa90506114ee565b8281836001600160a01b03167ff6bccdcc7c2506c199cbaf64aba36ed54b01cc1c478aa234e0806f393751a9c260405160405180910390a45050505050505050565b60115460ff161515600114610d3c5760405162461bcd60e51b815260206004820152601660248201527520526f756e6473206d7573742062652061637469766560501b60448201526064016108f2565b80610d46600f5490565b610d509084611b74565b14610d965760405162461bcd60e51b815260206004820152601660248201527501036bab9ba1031329032b8bab0b6103b30b63ab2b9960551b60448201526064016108f2565b600f54610da39083611b61565b15610e0b5760405162461bcd60e51b815260206004820152603260248201527f6e6565647320746f20626520646976697369626c6520627920746865207469636044820152716b657420707269636520796f75206375636b60701b60648201526084016108f2565b600e545f9081526012602052604090206005015460ff161515600114610e735760405162461bcd60e51b815260206004820181905260248201527f7468652063757272656e7420726f756e64206973206e6f74206163746976652060448201526064016108f2565b6007546040516323b872dd60e01b81526001600160a01b03909116906323b872dd90610ea790339030908790600401611a4a565b6020604051808303815f875af1158015610ec3573d5f803e3d5ffd5b505050506040513d601f19601f82011682018060405250810190610ee79190611a85565b610f595760405162461bcd60e51b815260206004820152603a60248201527f7472616e73666572206661696c65642c206d616b65207375726520746f20617060448201527f70726f766520706f6720746f2074616b6520796f757220706f6700000000000060648201526084016108f2565b600e545f9081526012602052604081206002018054849290610f7c908490611ab4565b909155505f90505b81811015610f9d57610f9533611532565b600101610f84565b50600e545f9081526012602052604081206007018054839290610fc1908490611ab4565b90915550610fcf9050610834565b1561100757610fdc61154f565b60405142907faa97d4a7b3afec5f55c25ca8593dde6929d4455fad650a16fa4334004293a618905f90a25b505042600b55565b6001600160a01b0381165f9081526013602090815260409182902080548351818402810184019094528084526060939283018282801561106c57602002820191905f5260205f20905b815481526020019060010190808311611058575b50505050509050919050565b5f5b600e54811015611295575f8181526012602052604090206005015461010090046001600160a01b03163314611119576040805162461bcd60e51b81526020600482015260248101919091527f596f752063616e6e6f7420636c61696d2074686973206365727469666963617460448201527f65206265636175736520796f7520617265206e6f74207468652077696e6e657260648201526084016108f2565b6005545f82815260126020526040908190206006015490516331a9108f60e11b8152600481019190915230916001600160a01b031690636352211e90602401602060405180830381865afa158015611173573d5f803e3d5ffd5b505050506040513d601f19601f820116820180604052508101906111979190611ac7565b6001600160a01b0316146111bd5760405162461bcd60e51b81526004016108f290611ae2565b600580545f8381526012602052604090819020928301546006909301549051632142170760e11b81526001600160a01b03928316936342842e0e9361121093309361010090930490911691600401611a4a565b5f604051808303815f87803b158015611227575f80fd5b505af1158015611239573d5f803e3d5ffd5b5050505f82815260126020526040808220600681015460059091015491519093506101009091046001600160a01b0316917fcb90408d26e46b7900b5c4691dcdcedb05997976f34c97e59b13c86b03ef05b391a360010161107a565b50565b6112a06114b9565b601580546001600160a01b0319166001600160a01b0392909216919091179055565b600e545f9081526012602052604081206112de906003016114e5565b82106113225760405162461bcd60e51b8152602060048201526013602482015272496e646578206f7574206f6620626f756e647360681b60448201526064016108f2565b600e545f90815260126020526040902061133f90600301836116aa565b92915050565b61134d6114b9565b6113565f6116bc565b565b6113606114b9565b600880546001600160a01b039485166001600160a01b031991821617909155600992909255600a8054919093169116179055565b61139c6114b9565b60065460405163f855337360e01b8152600481018390525f60248201526001600160a01b039091169063f85533739060440161065c565b6113db6114b9565b6113ed81670de0b6b3a7640000611b87565b600f5550565b6113fb6114b9565b601055565b600e545f90815260126020526040812061133f906003018361170b565b5f601054600b5461142e9190611ab4565b421061143957505f90565b42601054600b5461144a9190611ab4565b61082f9190611b9e565b61145c6114b9565b6113566114ee565b61146c6114b9565b6011805460ff1916911515919091179055565b6114876114b9565b6001600160a01b0381166114b057604051631e4fbdf760e01b81525f60048201526024016108f2565b611295816116bc565b5f546001600160a01b031633146113565760405163118cdaa760e01b81523360048201526024016108f2565b5f61133f825490565b600e80545f9081526012602052604080822060020182905582548252808220600501805460ff19166001179055825482528082204290559154815290812060070155565b600e545f90815260126020526040902061079b906003018261172c565b6006545f906001600160a01b0316632e51c0bd61156b600f5490565b6040516001600160e01b031960e084901b1681526004810191909152600160248201526044015f604051808303815f875af11580156115ac573d5f803e3d5ffd5b505050506040513d5f823e601f3d908101601f191682016040526115d39190810190611bc5565b5f815181106115e4576115e4611c7e565b60209081029190910101516005546006546040516329f99b9f60e01b81526001600160a01b039182166004820152602481018490529293505f929116906329f99b9f90604401602060405180830381865afa158015611645573d5f803e3d5ffd5b505050506040513d601f19601f820116820180604052508101906116699190611a6e565b600e80545f9081526012602052604080822060060184905582548252808220600501805460ff1916905591548152204260019190910155905061079b611740565b5f6116b58383611853565b9392505050565b5f80546001600160a01b038381166001600160a01b0319831681178455604051919092169283917f8be0079c531659141344cd1fd0a4f28419497f9722a3daafe3b4186f6b6457e09190a35050565b6001600160a01b0381165f90815260018301602052604081205415156116b5565b5f6116b5836001600160a01b038416611879565b600854600954600a54604051636e6be03f60e01b81526001600160a01b0393841660048201526024810192909252306044830181905290831660648301526084820152631b8c6c8560e11b60a482015260e060c48201525f60e48201819052917f00000000000000000000000000000000000000000000000000000000000000001690636e6be03f90610104016020604051808303815f875af11580156117e9573d5f803e3d5ffd5b505050506040513d601f19601f8201168201806040525081019061180d9190611a6e565b5f81815260146020526040808220805460ff191660011790555191925082917fcba2da2f3c0c732a104019a3104936397dde7343964c1518ceb760052e4537b19190a250565b5f825f01828154811061186857611868611c7e565b905f5260205f200154905092915050565b5f8181526001830160205260408120546118be57508154600181810184555f84815260208082209093018490558454848252828601909352604090209190915561133f565b505f61133f565b5f602082840312156118d5575f80fd5b5035919050565b6001600160a01b0381168114611295575f80fd5b5f60208284031215611900575f80fd5b81356116b5816118dc565b5f805f6040848603121561191d575f80fd5b83359250602084013567ffffffffffffffff8082111561193b575f80fd5b818601915086601f83011261194e575f80fd5b81358181111561195c575f80fd5b87602082850101111561196d575f80fd5b6020830194508093505050509250925092565b5f8060408385031215611991575f80fd5b50508035926020909101359150565b602080825282518282018190525f9190848201906040850190845b818110156119d7578351835292840192918401916001016119bb565b50909695505050505050565b5f805f606084860312156119f5575f80fd5b8335611a00816118dc565b9250602084013591506040840135611a17816118dc565b809150509250925092565b8015158114611295575f80fd5b5f60208284031215611a3f575f80fd5b81356116b581611a22565b6001600160a01b039384168152919092166020820152604081019190915260600190565b5f60208284031215611a7e575f80fd5b5051919050565b5f60208284031215611a95575f80fd5b81516116b581611a22565b634e487b7160e01b5f52601160045260245ffd5b8082018082111561133f5761133f611aa0565b5f60208284031215611ad7575f80fd5b81516116b5816118dc565b60208082526045908201527f596f752063616e6e6f7420636c61696d2074686973206365727469666963617460408201527f6520626563617573652069742068617320616c7265616479206265656e20636c606082015264185a5b595960da1b608082015260a00190565b634e487b7160e01b5f52601260045260245ffd5b5f82611b6f57611b6f611b4d565b500690565b5f82611b8257611b82611b4d565b500490565b808202811582820484141761133f5761133f611aa0565b8181038181111561133f5761133f611aa0565b634e487b7160e01b5f52604160045260245ffd5b5f6020808385031215611bd6575f80fd5b825167ffffffffffffffff80821115611bed575f80fd5b818501915085601f830112611c00575f80fd5b815181811115611c1257611c12611bb1565b8060051b604051601f19603f83011681018181108582111715611c3757611c37611bb1565b604052918252848201925083810185019188831115611c54575f80fd5b938501935b82851015611c7257845184529385019392850192611c59565b98975050505050505050565b634e487b7160e01b5f52603260045260245ffdfea2646970667358221220ae97a6e1c8994ced0f4dafa4c49149b230df4e6660e82b4d6cb07434e150d5bf64736f6c63430008190033",
  "linkReferences": {},
  "deployedLinkReferences": {}
}